{
  "contractName": "BetFlip",
  "abi": [
    {
      "anonymous": false,
      "inputs": [
        {
          "indexed": false,
          "internalType": "string",
          "name": "description",
          "type": "string"
        }
      ],
      "name": "LogNewProvableQuery",
      "type": "event"
    },
    {
      "anonymous": false,
      "inputs": [
        {
          "indexed": false,
          "internalType": "bytes32",
          "name": "queryID",
          "type": "bytes32"
        },
        {
          "indexed": false,
          "internalType": "string",
          "name": "result",
          "type": "string"
        },
        {
          "indexed": false,
          "internalType": "bytes",
          "name": "proof",
          "type": "bytes"
        }
      ],
      "name": "TestRandomEvent",
      "type": "event"
    },
    {
      "anonymous": false,
      "inputs": [
        {
          "indexed": false,
          "internalType": "uint256",
          "name": "returnCode",
          "type": "uint256"
        },
        {
          "indexed": false,
          "internalType": "uint256",
          "name": "randomNumber",
          "type": "uint256"
        },
        {
          "indexed": false,
          "internalType": "string",
          "name": "message",
          "type": "string"
        }
      ],
      "name": "generatedRandomNumber",
      "type": "event"
    },
    {
      "inputs": [],
      "name": "owner",
      "outputs": [
        {
          "internalType": "address",
          "name": "",
          "type": "address"
        }
      ],
      "stateMutability": "view",
      "type": "function",
      "constant": true
    },
    {
      "inputs": [],
      "name": "queryRandom",
      "outputs": [],
      "stateMutability": "payable",
      "type": "function",
      "payable": true
    },
    {
      "inputs": [
        {
          "internalType": "bytes32",
          "name": "_myid",
          "type": "bytes32"
        },
        {
          "internalType": "string",
          "name": "_result",
          "type": "string"
        }
      ],
      "name": "__callback",
      "outputs": [],
      "stateMutability": "nonpayable",
      "type": "function"
    },
    {
      "inputs": [
        {
          "internalType": "bytes32",
          "name": "_queryId",
          "type": "bytes32"
        },
        {
          "internalType": "string",
          "name": "_result",
          "type": "string"
        },
        {
          "internalType": "bytes",
          "name": "_proof",
          "type": "bytes"
        }
      ],
      "name": "__callback",
      "outputs": [],
      "stateMutability": "nonpayable",
      "type": "function"
    },
    {
      "inputs": [],
      "name": "withdrawPlayerBalance",
      "outputs": [
        {
          "internalType": "uint256",
          "name": "",
          "type": "uint256"
        }
      ],
      "stateMutability": "nonpayable",
      "type": "function"
    },
    {
      "inputs": [],
      "name": "getPlayerBalance",
      "outputs": [
        {
          "internalType": "uint256",
          "name": "",
          "type": "uint256"
        }
      ],
      "stateMutability": "view",
      "type": "function",
      "constant": true
    },
    {
      "inputs": [],
      "name": "getPlayerWager",
      "outputs": [
        {
          "internalType": "uint256",
          "name": "",
          "type": "uint256"
        }
      ],
      "stateMutability": "view",
      "type": "function",
      "constant": true
    },
    {
      "inputs": [],
      "name": "getPlayerQueryID",
      "outputs": [
        {
          "internalType": "bytes32",
          "name": "",
          "type": "bytes32"
        }
      ],
      "stateMutability": "view",
      "type": "function",
      "constant": true
    },
    {
      "inputs": [],
      "name": "getPlayerWaiting",
      "outputs": [
        {
          "internalType": "bool",
          "name": "",
          "type": "bool"
        }
      ],
      "stateMutability": "view",
      "type": "function",
      "constant": true
    },
    {
      "inputs": [],
      "name": "getAdressOfQeryId",
      "outputs": [
        {
          "internalType": "address",
          "name": "",
          "type": "address"
        }
      ],
      "stateMutability": "view",
      "type": "function",
      "constant": true
    },
    {
      "inputs": [
        {
          "internalType": "uint256",
          "name": "ammount",
          "type": "uint256"
        }
      ],
      "name": "withdrawSCBalance",
      "outputs": [
        {
          "internalType": "uint256",
          "name": "",
          "type": "uint256"
        }
      ],
      "stateMutability": "nonpayable",
      "type": "function"
    },
    {
      "inputs": [],
      "name": "depositSC",
      "outputs": [],
      "stateMutability": "payable",
      "type": "function",
      "payable": true
    },
    {
      "inputs": [],
      "name": "getBalanceSC",
      "outputs": [
        {
          "internalType": "uint256",
          "name": "",
          "type": "uint256"
        }
      ],
      "stateMutability": "view",
      "type": "function",
      "constant": true
    }
  ],
  "bytecode": "0x6080604052336000806101000a81548173ffffffffffffffffffffffffffffffffffffffff021916908373ffffffffffffffffffffffffffffffffffffffff160217905550612fbb806100536000396000f3fe6080604052600436106100c25760003560e01c80637f21eef21161007f578063b32c935611610059578063b32c93561461048a578063d325101a146104b5578063d5246eba146104e0578063dd10d97e146104ea576100c2565b80637f21eef2146103dd5780638da5cb5b14610408578063909e6f641461045f576100c2565b80630b01517c146100c75780630b3754f2146100f257806327dc297e1461014157806336ebde4b1461021357806338bbfa501461026a57806356bca8c5146103d3575b600080fd5b3480156100d357600080fd5b506100dc610519565b6040518082815260200191505060405180910390f35b3480156100fe57600080fd5b5061012b6004803603602081101561011557600080fd5b8101908080359060200190929190505050610563565b6040518082815260200191505060405180910390f35b34801561014d57600080fd5b506102116004803603604081101561016457600080fd5b81019080803590602001909291908035906020019064010000000081111561018b57600080fd5b82018360208201111561019d57600080fd5b803590602001918460018302840111640100000000831117156101bf57600080fd5b91908080601f016020809104026020016040519081016040528093929190818152602001838380828437600081840152601f19601f82011690508083019250505050505050919291929050505061061d565b005b34801561021f57600080fd5b50610228610677565b604051808273ffffffffffffffffffffffffffffffffffffffff1673ffffffffffffffffffffffffffffffffffffffff16815260200191505060405180910390f35b34801561027657600080fd5b506103d16004803603606081101561028d57600080fd5b8101908080359060200190929190803590602001906401000000008111156102b457600080fd5b8201836020820111156102c657600080fd5b803590602001918460018302840111640100000000831117156102e857600080fd5b91908080601f016020809104026020016040519081016040528093929190818152602001838380828437600081840152601f19601f8201169050808301925050505050505091929192908035906020019064010000000081111561034b57600080fd5b82018360208201111561035d57600080fd5b8035906020019184600183028401116401000000008311171561037f57600080fd5b91908080601f016020809104026020016040519081016040528093929190818152602001838380828437600081840152601f19601f8201169050808301925050505050505091929192905050506106f7565b005b6103db610b7f565b005b3480156103e957600080fd5b506103f2610bea565b6040518082815260200191505060405180910390f35b34801561041457600080fd5b5061041d610c34565b604051808273ffffffffffffffffffffffffffffffffffffffff1673ffffffffffffffffffffffffffffffffffffffff16815260200191505060405180910390f35b34801561046b57600080fd5b50610474610c59565b6040518082815260200191505060405180910390f35b34801561049657600080fd5b5061049f610ca3565b6040518082815260200191505060405180910390f35b3480156104c157600080fd5b506104ca610d06565b6040518082815260200191505060405180910390f35b6104e8610de4565b005b3480156104f657600080fd5b506104ff611152565b604051808215151515815260200191505060405180910390f35b6000600860003373ffffffffffffffffffffffffffffffffffffffff1673ffffffffffffffffffffffffffffffffffffffff16815260200190815260200160002060000154905090565b60008060009054906101000a900473ffffffffffffffffffffffffffffffffffffffff1673ffffffffffffffffffffffffffffffffffffffff163373ffffffffffffffffffffffffffffffffffffffff16146105be57600080fd5b816006600082825403925050819055503373ffffffffffffffffffffffffffffffffffffffff166108fc839081150290604051600060405180830381858888f19350505050158015610614573d6000803e3d6000fd5b50819050919050565b6106738282600067ffffffffffffffff8111801561063a57600080fd5b506040519080825280601f01601f19166020018201604052801561066d5781602001600182028036833780820191505090505b506106f7565b5050565b600060096000600860003373ffffffffffffffffffffffffffffffffffffffff1673ffffffffffffffffffffffffffffffffffffffff16815260200190815260200160002060020154815260200190815260200160002060000160009054906101000a900473ffffffffffffffffffffffffffffffffffffffff16905090565b6000809050600080905060006009600087815260200190815260200160002060000160009054906101000a900473ffffffffffffffffffffffffffffffffffffffff16905060606000831461076657604051806060016040528060278152602001612f296027913990506109a0565b6002866040516020018082805190602001908083835b6020831061079f578051825260208201915060208101905060208303925061077c565b6001836020036101000a0380198251168184511680821785525050505050509050019150506040516020818303038152906040528051906020012060001c816107e457fe5b069350600184141561091457600860008373ffffffffffffffffffffffffffffffffffffffff1673ffffffffffffffffffffffffffffffffffffffff16815260200190815260200160002060010154600202600860008473ffffffffffffffffffffffffffffffffffffffff1673ffffffffffffffffffffffffffffffffffffffff16815260200190815260200160002060000160008282540192505081905550600860008373ffffffffffffffffffffffffffffffffffffffff1673ffffffffffffffffffffffffffffffffffffffff168152602001908152602001600020600101546006600082825403925050819055506040518060400160405280601d81526020017f43616c6c6261636b20737563636565642e20506c6179657220776f6e21000000815250905061099f565b600860008373ffffffffffffffffffffffffffffffffffffffff1673ffffffffffffffffffffffffffffffffffffffff168152602001908152602001600020600101546006600082825401925050819055506040518060400160405280601e81526020017f43616c6c6261636b20737563636565642e20506c61796572206c6f736521000081525090505b5b6000801b600860008473ffffffffffffffffffffffffffffffffffffffff1673ffffffffffffffffffffffffffffffffffffffff168152602001908152602001600020600201819055506000600860008473ffffffffffffffffffffffffffffffffffffffff1673ffffffffffffffffffffffffffffffffffffffff168152602001908152602001600020600101819055506000600860008473ffffffffffffffffffffffffffffffffffffffff1673ffffffffffffffffffffffffffffffffffffffff16815260200190815260200160002060030160006101000a81548160ff02191690831515021790555060096000888152602001908152602001600020600080820160006101000a81549073ffffffffffffffffffffffffffffffffffffffff021916905550507fa632df8723961720870e370a7fc641e50b043e9ec44d4011f2d4310395497d598385836040518084815260200183815260200180602001828103825283818151815260200191508051906020019080838360005b83811015610b3a578082015181840152602081019050610b1f565b50505050905090810190601f168015610b675780820380516001836020036101000a031916815260200191505b5094505050505060405180910390a150505050505050565b6000809054906101000a900473ffffffffffffffffffffffffffffffffffffffff1673ffffffffffffffffffffffffffffffffffffffff163373ffffffffffffffffffffffffffffffffffffffff1614610bd857600080fd5b34600660008282540192505081905550565b6000600860003373ffffffffffffffffffffffffffffffffffffffff1673ffffffffffffffffffffffffffffffffffffffff16815260200190815260200160002060020154905090565b6000809054906101000a900473ffffffffffffffffffffffffffffffffffffffff1681565b6000600860003373ffffffffffffffffffffffffffffffffffffffff1673ffffffffffffffffffffffffffffffffffffffff16815260200190815260200160002060010154905090565b60008060009054906101000a900473ffffffffffffffffffffffffffffffffffffffff1673ffffffffffffffffffffffffffffffffffffffff163373ffffffffffffffffffffffffffffffffffffffff1614610cfe57600080fd5b600654905090565b600080600860003373ffffffffffffffffffffffffffffffffffffffff1673ffffffffffffffffffffffffffffffffffffffff1681526020019081526020016000206000015490506000600860003373ffffffffffffffffffffffffffffffffffffffff1673ffffffffffffffffffffffffffffffffffffffff168152602001908152602001600020600001819055503373ffffffffffffffffffffffffffffffffffffffff166108fc829081150290604051600060405180830381858888f19350505050158015610ddc573d6000803e3d6000fd5b508091505090565b600162030d400180341015610e61576040517f08c379a00000000000000000000000000000000000000000000000000000000081526004018080602001828103825260158152602001807f506c656173652073656e64206d6f72652077656921000000000000000000000081525060200191505060405180910390fd5b600262030d403403026006541015610ec4576040517f08c379a0000000000000000000000000000000000000000000000000000000008152600401808060200182810382526035815260200180612ef46035913960400191505060405180910390fd5b60001515600860003373ffffffffffffffffffffffffffffffffffffffff1673ffffffffffffffffffffffffffffffffffffffff16815260200190815260200160002060030160009054906101000a900460ff16151514610f70576040517f08c379a0000000000000000000000000000000000000000000000000000000008152600401808060200182810382526022815260200180612ed26022913960400191505060405180910390fd5b610f806000600162030d406111a9565b600860003373ffffffffffffffffffffffffffffffffffffffff1673ffffffffffffffffffffffffffffffffffffffff1681526020019081526020016000206002018190555062030d403403600860003373ffffffffffffffffffffffffffffffffffffffff1673ffffffffffffffffffffffffffffffffffffffff168152602001908152602001600020600101819055506001600860003373ffffffffffffffffffffffffffffffffffffffff1673ffffffffffffffffffffffffffffffffffffffff16815260200190815260200160002060030160006101000a81548160ff0219169083151502179055503360096000600860003373ffffffffffffffffffffffffffffffffffffffff1673ffffffffffffffffffffffffffffffffffffffff16815260200190815260200160002060020154815260200190815260200160002060000160006101000a81548173ffffffffffffffffffffffffffffffffffffffff021916908373ffffffffffffffffffffffffffffffffffffffff1602179055507fc4dc360d0a9c0677a3379ae0a3d81e887f761e65fdf3d7e00859d1bcd3c47389604051808060200182810382526036815260200180612f506036913960400191505060405180910390a150565b6000600860003373ffffffffffffffffffffffffffffffffffffffff1673ffffffffffffffffffffffffffffffffffffffff16815260200190815260200160002060030160009054906101000a900460ff16905090565b600080831180156111bb575060208311155b6111c457600080fd5b600a840293506060600167ffffffffffffffff811180156111e457600080fd5b506040519080825280601f01601f1916602001820160405280156112175781602001600182028036833780820191505090505b5090508360f81b8160008151811061122b57fe5b60200101907effffffffffffffffffffffffffffffffffffffffffffffffffffffffffffff1916908160001a9053506060602067ffffffffffffffff8111801561127457600080fd5b506040519080825280601f01601f1916602001820160405280156112a75781602001600182028036833780820191505090505b5090506060602067ffffffffffffffff811180156112c457600080fd5b506040519080825280601f01601f1916602001820160405280156112f75781602001600182028036833780820191505090505b50905060006113046117ce565b9050602083524241186001430340186020840152602082528060208301526060602067ffffffffffffffff8111801561133c57600080fd5b506040519080825280601f01601f19166020018201604052801561136f5781602001600182028036833780820191505090505b5090508860208201526060600867ffffffffffffffff8111801561139257600080fd5b506040519080825280601f01601f1916602001820160405280156113c55781602001600182028036833780820191505090505b5090506113d88260186008846000611aee565b506113e1612deb565b604051806080016040528087815260200188815260200186815260200184815250905060006114466040518060400160405280600681526020017f72616e646f6d0000000000000000000000000000000000000000000000000000815250838c611b4d565b90506060600867ffffffffffffffff8111801561146257600080fd5b506040519080825280601f01601f1916602001820160405280156114955781602001600182028036833780820191505090505b50905060208401517f0100000000000000000000000000000000000000000000000000000000000000810460278301537e01000000000000000000000000000000000000000000000000000000000000810460268301537d010000000000000000000000000000000000000000000000000000000000810460258301537c0100000000000000000000000000000000000000000000000000000000810460248301537b01000000000000000000000000000000000000000000000000000000810460238301537a0100000000000000000000000000000000000000000000000000008104602283015379010000000000000000000000000000000000000000000000000081046021830153780100000000000000000000000000000000000000000000000081046020830153506117bb8282856001600481106115d457fe5b60200201516002876000600481106115e857fe5b60200201516040518082805190602001908083835b6020831061162057805182526020820191506020810190506020830392506115fd565b6001836020036101000a038019825116818451168082178552505050505050905001915050602060405180830381855afa158015611662573d6000803e3d6000fd5b5050506040513d602081101561167757600080fd5b81019080805190602001909291905050508760026004811061169557fe5b60200201516040516020018085805190602001908083835b602083106116d057805182526020820191506020810190506020830392506116ad565b6001836020036101000a03801982511681845116808217855250505050505090500184805190602001908083835b6020831061172157805182526020820191506020810190506020830392506116fe565b6001836020036101000a03801982511681845116808217855250505050505090500183815260200182805190602001908083835b602083106117785780518252602082019150602081019050602083039250611755565b6001836020036101000a03801982511681845116808217855250505050505090500194505050505060405160208183030381529060405280519060200120611ed3565b8199505050505050505050509392505050565b60008073ffffffffffffffffffffffffffffffffffffffff16600260009054906101000a900473ffffffffffffffffffffffffffffffffffffffff1673ffffffffffffffffffffffffffffffffffffffff16148061185657506000611854600260009054906101000a900473ffffffffffffffffffffffffffffffffffffffff16611eef565b145b15611867576118656000611efa565b505b600260009054906101000a900473ffffffffffffffffffffffffffffffffffffffff1673ffffffffffffffffffffffffffffffffffffffff166338cc48316040518163ffffffff1660e01b8152600401602060405180830381600087803b1580156118d157600080fd5b505af11580156118e5573d6000803e3d6000fd5b505050506040513d60208110156118fb57600080fd5b810190808051906020019092919050505073ffffffffffffffffffffffffffffffffffffffff16600160009054906101000a900473ffffffffffffffffffffffffffffffffffffffff1673ffffffffffffffffffffffffffffffffffffffff1614611a4657600260009054906101000a900473ffffffffffffffffffffffffffffffffffffffff1673ffffffffffffffffffffffffffffffffffffffff166338cc48316040518163ffffffff1660e01b8152600401602060405180830381600087803b1580156119ca57600080fd5b505af11580156119de573d6000803e3d6000fd5b505050506040513d60208110156119f457600080fd5b8101908080519060200190929190505050600160006101000a81548173ffffffffffffffffffffffffffffffffffffffff021916908373ffffffffffffffffffffffffffffffffffffffff1602179055505b600160009054906101000a900473ffffffffffffffffffffffffffffffffffffffff1673ffffffffffffffffffffffffffffffffffffffff1663abaa5f3e6040518163ffffffff1660e01b815260040160206040518083038186803b158015611aae57600080fd5b505afa158015611ac2573d6000803e3d6000fd5b505050506040513d6020811015611ad857600080fd5b8101908080519060200190929190505050905090565b6060600082850190508084511015611b0557600080fd5b600086602001905060008460200190505b868860200101821015611b3e5781890151808288015250602082019150602081019050611b16565b85935050505095945050505050565b60008073ffffffffffffffffffffffffffffffffffffffff16600260009054906101000a900473ffffffffffffffffffffffffffffffffffffffff1673ffffffffffffffffffffffffffffffffffffffff161480611bd557506000611bd3600260009054906101000a900473ffffffffffffffffffffffffffffffffffffffff16611eef565b145b15611be657611be46000611efa565b505b600260009054906101000a900473ffffffffffffffffffffffffffffffffffffffff1673ffffffffffffffffffffffffffffffffffffffff166338cc48316040518163ffffffff1660e01b8152600401602060405180830381600087803b158015611c5057600080fd5b505af1158015611c64573d6000803e3d6000fd5b505050506040513d6020811015611c7a57600080fd5b810190808051906020019092919050505073ffffffffffffffffffffffffffffffffffffffff16600160009054906101000a900473ffffffffffffffffffffffffffffffffffffffff1673ffffffffffffffffffffffffffffffffffffffff1614611dc557600260009054906101000a900473ffffffffffffffffffffffffffffffffffffffff1673ffffffffffffffffffffffffffffffffffffffff166338cc48316040518163ffffffff1660e01b8152600401602060405180830381600087803b158015611d4957600080fd5b505af1158015611d5d573d6000803e3d6000fd5b505050506040513d6020811015611d7357600080fd5b8101908080519060200190929190505050600160006101000a81548173ffffffffffffffffffffffffffffffffffffffff021916908373ffffffffffffffffffffffffffffffffffffffff1602179055505b6060600467ffffffffffffffff81118015611ddf57600080fd5b50604051908082528060200260200182016040528015611e1357816020015b6060815260200190600190039081611dfe5790505b50905083600060048110611e2357fe5b602002015181600081518110611e3557fe5b602002602001018190525083600160048110611e4d57fe5b602002015181600181518110611e5f57fe5b602002602001018190525083600260048110611e7757fe5b602002015181600281518110611e8957fe5b602002602001018190525083600360048110611ea157fe5b602002015181600381518110611eb357fe5b6020026020010181905250611ec9858285611f0b565b9150509392505050565b8060046000848152602001908152602001600020819055505050565b6000813b9050919050565b6000611f04612471565b9050919050565b60008073ffffffffffffffffffffffffffffffffffffffff16600260009054906101000a900473ffffffffffffffffffffffffffffffffffffffff1673ffffffffffffffffffffffffffffffffffffffff161480611f9357506000611f91600260009054906101000a900473ffffffffffffffffffffffffffffffffffffffff16611eef565b145b15611fa457611fa26000611efa565b505b600260009054906101000a900473ffffffffffffffffffffffffffffffffffffffff1673ffffffffffffffffffffffffffffffffffffffff166338cc48316040518163ffffffff1660e01b8152600401602060405180830381600087803b15801561200e57600080fd5b505af1158015612022573d6000803e3d6000fd5b505050506040513d602081101561203857600080fd5b810190808051906020019092919050505073ffffffffffffffffffffffffffffffffffffffff16600160009054906101000a900473ffffffffffffffffffffffffffffffffffffffff1673ffffffffffffffffffffffffffffffffffffffff161461218357600260009054906101000a900473ffffffffffffffffffffffffffffffffffffffff1673ffffffffffffffffffffffffffffffffffffffff166338cc48316040518163ffffffff1660e01b8152600401602060405180830381600087803b15801561210757600080fd5b505af115801561211b573d6000803e3d6000fd5b505050506040513d602081101561213157600080fd5b8101908080519060200190929190505050600160006101000a81548173ffffffffffffffffffffffffffffffffffffffff021916908373ffffffffffffffffffffffffffffffffffffffff1602179055505b6000600160009054906101000a900473ffffffffffffffffffffffffffffffffffffffff1673ffffffffffffffffffffffffffffffffffffffff16632ef3accc86856040518363ffffffff1660e01b81526004018080602001838152602001828103825284818151815260200191508051906020019080838360005b8381101561221a5780820151818401526020810190506121ff565b50505050905090810190601f1680156122475780820380516001836020036101000a031916815260200191505b509350505050602060405180830381600087803b15801561226757600080fd5b505af115801561227b573d6000803e3d6000fd5b505050506040513d602081101561229157600080fd5b81019080805190602001909291905050509050823a02670de0b6b3a7640000018111156122c4576000801b91505061246a565b60606122cf856129c8565b9050600160009054906101000a900473ffffffffffffffffffffffffffffffffffffffff1673ffffffffffffffffffffffffffffffffffffffff1663c55c1cb68360008985896040518663ffffffff1660e01b8152600401808581526020018060200180602001848152602001838103835286818151815260200191508051906020019080838360005b83811015612374578082015181840152602081019050612359565b50505050905090810190601f1680156123a15780820380516001836020036101000a031916815260200191505b50838103825285818151815260200191508051906020019080838360005b838110156123da5780820151818401526020810190506123bf565b50505050905090810190601f1680156124075780820380516001836020036101000a031916815260200191505b5096505050505050506020604051808303818588803b15801561242957600080fd5b505af115801561243d573d6000803e3d6000fd5b50505050506040513d602081101561245457600080fd5b8101908080519060200190929190505050925050505b9392505050565b600080612491731d3b2638a7cc9f2cb3d298a3da7a90b67e5506ed611eef565b111561253357731d3b2638a7cc9f2cb3d298a3da7a90b67e5506ed600260006101000a81548173ffffffffffffffffffffffffffffffffffffffff021916908373ffffffffffffffffffffffffffffffffffffffff16021790555061252a6040518060400160405280600b81526020017f6574685f6d61696e6e6574000000000000000000000000000000000000000000815250612a48565b600190506129c5565b600061255273c03a2615d5efaf5f49f60b7bb6583eaec212fdf1611eef565b11156125f45773c03a2615d5efaf5f49f60b7bb6583eaec212fdf1600260006101000a81548173ffffffffffffffffffffffffffffffffffffffff021916908373ffffffffffffffffffffffffffffffffffffffff1602179055506125eb6040518060400160405280600c81526020017f6574685f726f707374656e330000000000000000000000000000000000000000815250612a48565b600190506129c5565b600061261373b7a07bcf2ba2f2703b24c0691b5278999c59ac7e611eef565b11156126b55773b7a07bcf2ba2f2703b24c0691b5278999c59ac7e600260006101000a81548173ffffffffffffffffffffffffffffffffffffffff021916908373ffffffffffffffffffffffffffffffffffffffff1602179055506126ac6040518060400160405280600981526020017f6574685f6b6f76616e0000000000000000000000000000000000000000000000815250612a48565b600190506129c5565b60006126d473146500cfd35b22e4a392fe0adc06de1a1368ed48611eef565b11156127765773146500cfd35b22e4a392fe0adc06de1a1368ed48600260006101000a81548173ffffffffffffffffffffffffffffffffffffffff021916908373ffffffffffffffffffffffffffffffffffffffff16021790555061276d6040518060400160405280600b81526020017f6574685f72696e6b656279000000000000000000000000000000000000000000815250612a48565b600190506129c5565b600061279573a2998efd205fb9d4b4963afb70778d6354ad3a41611eef565b11156128375773a2998efd205fb9d4b4963afb70778d6354ad3a41600260006101000a81548173ffffffffffffffffffffffffffffffffffffffff021916908373ffffffffffffffffffffffffffffffffffffffff16021790555061282e6040518060400160405280600a81526020017f6574685f676f65726c6900000000000000000000000000000000000000000000815250612a48565b600190506129c5565b6000612856736f485c8bf6fc43ea212e93bbf8ce046c7f1cb475611eef565b11156128ba57736f485c8bf6fc43ea212e93bbf8ce046c7f1cb475600260006101000a81548173ffffffffffffffffffffffffffffffffffffffff021916908373ffffffffffffffffffffffffffffffffffffffff160217905550600190506129c5565b60006128d97320e12a1f859b3feae5fb2a0a32c18f5a65555bbf611eef565b111561293d577320e12a1f859b3feae5fb2a0a32c18f5a65555bbf600260006101000a81548173ffffffffffffffffffffffffffffffffffffffff021916908373ffffffffffffffffffffffffffffffffffffffff160217905550600190506129c5565b600061295c7351efaf4c8b3c9afbd5ab9f4bbc82784ab6ef8faa611eef565b11156129c0577351efaf4c8b3c9afbd5ab9f4bbc82784ab6ef8faa600260006101000a81548173ffffffffffffffffffffffffffffffffffffffff021916908373ffffffffffffffffffffffffffffffffffffffff160217905550600190506129c5565b600090505b90565b60606129d2612a62565b6129da612e12565b6129e681610400612a6e565b6129ef81612ab8565b60008090505b8351811015612a3157612a24848281518110612a0d57fe5b602002602001015183612ac690919063ffffffff16565b80806001019150506129f5565b50612a3b81612aeb565b8060000151915050919050565b8060039080519060200190612a5e929190612e2c565b5050565b60405180590338823950565b6000819050600060208281612a7f57fe5b0614612a985760208181612a8f57fe5b06602003810190505b808360200181815250506040518084526000815281810160405250505050565b612ac3816004612af9565b50565b612ad38260028351612b1a565b612ae68183612c5a90919063ffffffff16565b505050565b612af6816007612af9565b50565b612b16601f60058360ff16901b1783612d0590919063ffffffff16565b5050565b60178111612b4657612b418160058460ff16901b60ff161784612d0590919063ffffffff16565b612c55565b60ff8111612b8757612b6b601860058460ff16901b1784612d0590919063ffffffff16565b612b8181600185612d459092919063ffffffff16565b50612c54565b61ffff8111612bc957612bad601960058460ff16901b1784612d0590919063ffffffff16565b612bc381600285612d459092919063ffffffff16565b50612c53565b63ffffffff8111612c0d57612bf1601a60058460ff16901b1784612d0590919063ffffffff16565b612c0781600485612d459092919063ffffffff16565b50612c52565b67ffffffffffffffff8111612c5157612c39601b60058460ff16901b1784612d0590919063ffffffff16565b612c4f81600885612d459092919063ffffffff16565b505b5b5b5b5b505050565b612c62612e12565b82602001518360000151518351011115612c9257612c91836002612c8b86602001518651612dac565b02612dc8565b5b60008060008451905085518051602081830101945086518101825260208701935050505b60208110612cd95781518352602083019250602082019150602081039050612cb6565b60006001826020036101000a039050801983511681855116818117865250508694505050505092915050565b81602001516001836000015151011115612d2b57612d2a826002846020015102612dc8565b5b815180516020818301018381536001820183525050505050565b612d4d612e12565b836020015184600001515183011115612d7b57612d7a846002612d74876020015186612dac565b02612dc8565b5b60006001836101000a0390508451805184818301018684198251161781528582018352505050849150509392505050565b600081831115612dbe57829050612dc2565b8190505b92915050565b606082600001519050612ddb8383612a6e565b612de58382612c5a565b50505050565b60405180608001604052806004905b6060815260200190600190039081612dfa5790505090565b604051806040016040528060608152602001600081525090565b828054600181600116156101000203166002900490600052602060002090601f016020900481019282601f10612e6d57805160ff1916838001178555612e9b565b82800160010185558215612e9b579182015b82811115612e9a578251825591602001919060010190612e7f565b5b509050612ea89190612eac565b5090565b612ece91905b80821115612eca576000816000905550600101612eb2565b5090565b9056fe506c61796572206d757374207761697420666f7220746865206c617374206265742e536d61727420436f6e747261637420686173206e6f7420656e6f7567682066756e647320746f20636f76657220746865206265742143616c6c6261636b206e6f7420737563636565642e20436865636b2072657475726e20636f646550726f7661626c65207175657279207761732073656e742c207374616e64696e6720627920666f722074686520616e737765722e2e2ea2646970667358221220d8f860416a14e1609d1f78d66030954f9ca7311094640fec007630b18365e85064736f6c63430006060033",
  "source": "import \"./Ownable.sol\";\nimport \"./provableAPI_0.6.sol\";\n\npragma solidity >=0.4.21 <0.7.0;\n\n\ncontract BetFlip is Ownable, usingProvable {\n\n  /*************************************************************************\n  * structs\n  **************************************************************************/\n  struct balances{\n      uint256 balance;       //balance of Player\n      uint256 wager;\n      bytes32 queryID;       //query ID for random number\n      bool waiting;       //true if no callback for random number received\n  }\n\n  struct addressesOfQueryID{\n    address qIdAdress;\n  }\n\n  /*************************************************************************\n  * variables and mappings\n  **************************************************************************/\n  uint private balanceSmartContract;\n  address private playerAddresses;\n\n  mapping (address => balances) playerBalance;\n  mapping (bytes32 => addressesOfQueryID) queryAddress;\n\n  /*************************************************************************\n  * constants\n  **************************************************************************/\n  uint256 constant NUM_RANDOM_BYTES_REQUESTED = 1;\n  uint256 constant QUERY_EXECUTION_DELAY = 0;\n  uint256 constant GAS_FOR_CALLBACK = 200000;\n\n\n  /*************************************************************************\n  * events\n  **************************************************************************/\n  event LogNewProvableQuery(string description);\n  event generatedRandomNumber(\n    uint256 returnCode,\n    uint256 randomNumber,\n    string message\n  );\n  event TestRandomEvent(\n    bytes32 queryID,\n    string result,\n    bytes proof\n  );\n\n  /*************************************************************************\n  * Modifier\n  **************************************************************************/\n  modifier costs(uint256 val){\n       require(msg.value >= val,\n           \"Please send more wei!\");\n       _; //Continue execution\n   }\n\n\n  /*************************************************************************\n  * cosntructor\n  **************************************************************************/\n\n\n  /*************************************************************************\n  * functions\n  **************************************************************************/\n\n  function queryRandom() payable public costs(GAS_FOR_CALLBACK + 1){\n    require(balanceSmartContract >= ( msg.value - GAS_FOR_CALLBACK) * 2\n      , \"Smart Contract has not enough funds to cover the bet!\");\n\n    require(playerBalance[msg.sender].waiting == false\n      , \"Player must wait for the last bet.\");\n\n\n    playerBalance[msg.sender].queryID = provable_newRandomDSQuery(\n        QUERY_EXECUTION_DELAY,\n        NUM_RANDOM_BYTES_REQUESTED,\n        GAS_FOR_CALLBACK\n    );\n\n      /* only for test purposes*/\n    // playerBalance[msg.sender].queryID = fakeRandom();\n\n\n    // update Player data\n    playerBalance[msg.sender].wager = msg.value - GAS_FOR_CALLBACK;\n    playerBalance[msg.sender].waiting = true;\n    queryAddress[playerBalance[msg.sender].queryID].qIdAdress = msg.sender;\n\n    emit LogNewProvableQuery(\n      \"Provable query was sent, standing by for the answer...\");\n  }\n\n\n  function __callback(bytes32 _queryId, string memory _result\n          , bytes memory _proof ) override public{\n\n/* TODO decomment\n    require(msg.sender == provable_cbAddress()\n      , \"Address not provable.\");\n*/\n    uint256 randomNumber = 0;\n    uint256 returnCode = 0;\n\n    // provable_randomDS_proofVerify__returnCode(_queryId, _result, _proof);\n\n    address playerAddress = queryAddress[_queryId].qIdAdress;\n    string memory message;\n\n    if ( returnCode != 0 ) {\n      message = \"Callback not succeed. Check return code\";\n    } else { // returnCode != 0\n      randomNumber = uint256(keccak256(abi.encodePacked(_result))) % 2;\n\n      if(randomNumber == 1) { // won\n        playerBalance[playerAddress].balance +=\n          2 * playerBalance[playerAddress].wager;\n\n        balanceSmartContract -= playerBalance[playerAddress].wager;\n        message = \"Callback succeed. Player won!\";\n\n      } else {  // lose\n        balanceSmartContract += playerBalance[playerAddress].wager;\n        message = \"Callback succeed. Player lose!\";\n      }\n    }\n\n    //delete player data\n    playerBalance[playerAddress].queryID = 0;\n    playerBalance[playerAddress].wager = 0;\n    playerBalance[playerAddress].waiting = false;\n    delete queryAddress[_queryId];\n\n    emit generatedRandomNumber(returnCode, randomNumber, message);\n  }\n\n  /* withdrawPlayerBalance()\n  * withdraw given ammount of ether to player address\n  * sc balance must be reduced with amount of withdraswl\n  */\n  function withdrawPlayerBalance() public returns(uint){\n    uint toTransfer = playerBalance[msg.sender].balance;\n    playerBalance[msg.sender].balance = 0;\n    msg.sender.transfer(toTransfer);\n    return toTransfer;\n  }\n\n  /* getPlayerBalance()\n  * return the balance from actual player address\n  */\n  function getPlayerBalance() public view returns(uint256){\n    return playerBalance[msg.sender].balance;\n  }\n\n  function getPlayerWager() public view returns(uint256){\n    return playerBalance[msg.sender].wager;\n  }\n\n  function getPlayerQueryID() public view returns(bytes32){\n    return playerBalance[msg.sender].queryID;\n  }\n\n  function getPlayerWaiting() public view returns(bool){\n    return playerBalance[msg.sender].waiting;\n  }\n\n  function getAdressOfQeryId() public view returns (address){\n     return queryAddress[playerBalance[msg.sender].queryID].qIdAdress;\n  }\n\n\n  /* withdrawSCBalance()\n  * withdraw given ammount of ether to player address\n  * only the owner can withdraw sc funds\n  * the maximum ammount of withrawl is balanceSC - all address balances\n  */\n  function withdrawSCBalance(uint ammount) public onlyOwner returns(uint) {\n    balanceSmartContract -= ammount ;\n    msg.sender.transfer(ammount);\n    return ammount;\n  }\n\n  /* depositSC()\n  * deposit given ammount of ether to smart contract\n  * only the owner can deposit sc funds\n  */\n  function depositSC() public onlyOwner payable{\n    balanceSmartContract += msg.value;\n  }\n\n  /* getBalanceSC()\n  * return the balance of smart contract\n  * only the owner can view it\n  */\n  function getBalanceSC() public view onlyOwner returns (uint) {\n    return balanceSmartContract;\n  }\n\n\n  /* pseudoRandom\n  * this was method for phase 1 of smartContract\n  */\n  function pseudoRandom() private view returns(uint){\n    return now % 2;\n  }\n\n  /* fakeRandom\n  *  this mehtod is used for phase 2 of smartContract for test purposes\n  */\n  function fakeRandom() private returns(bytes32){\n    bytes32 queryID =\n          bytes32(keccak256(abi.encodePacked(msg.sender)));\n    string memory result;\n    if(pseudoRandom() == 1) {\n      result = \"1\";\n    }\n    else{\n      result = \"0\";\n    }\n\n    emit TestRandomEvent(queryID, result, bytes(\"pseudoRandom\"));\n\n    return queryID;\n  }\n\n}\n",
  "sourcePath": "D:\\BetFlipDApp_D\\smart_contract\\contracts\\BetFlip.sol",
  "compiler": {
    "name": "solc",
    "version": "0.6.6+commit.6c089d02.Emscripten.clang"
  },
  "schemaVersion": "3.0.23",
  "updatedAt": "2020-05-16T11:05:32.138Z",
  "networkType": "ethereum",
  "devdoc": {
    "methods": {
      "__callback(bytes32,string)": {
        "details": "The following `__callback` functions are just placeholders ideally     meant to be defined in child contract when proofs are used.     The function bodies simply silence compiler warnings."
      }
    }
  },
  "userdoc": {
    "methods": {
      "queryRandom()": {
        "notice": "*********************************************************************** functions*************************************************************************"
      }
    }
  }
}