{
  "contractName": "Ownable",
  "abi": [
    {
      "inputs": [],
      "stateMutability": "nonpayable",
      "type": "constructor"
    },
    {
      "inputs": [],
      "name": "owner",
      "outputs": [
        {
          "internalType": "address",
          "name": "",
          "type": "address"
        }
      ],
      "stateMutability": "view",
      "type": "function",
      "constant": true
    }
  ],
  "bytecode": "0x608060405234801561001057600080fd5b50336000806101000a81548173ffffffffffffffffffffffffffffffffffffffff021916908373ffffffffffffffffffffffffffffffffffffffff16021790555060d08061005f6000396000f3fe6080604052348015600f57600080fd5b506004361060285760003560e01c80638da5cb5b14602d575b600080fd5b60336075565b604051808273ffffffffffffffffffffffffffffffffffffffff1673ffffffffffffffffffffffffffffffffffffffff16815260200191505060405180910390f35b6000809054906101000a900473ffffffffffffffffffffffffffffffffffffffff168156fea26469706673582212203e1a8e39b1cbde76cdffdecdd523f42c0435974029fabd29f4cb0826eef46a6464736f6c63430006060033",
  "source": "pragma solidity >=0.4.21 <0.7.0;\r\n\r\ncontract Ownable{\r\n    address public owner;\r\n\r\n    modifier onlyOwner(){\r\n        require(msg.sender == owner);\r\n        _; //Continue execution\r\n    }\r\n\r\n    constructor() public{\r\n        owner = msg.sender;\r\n    }\r\n}\r\n",
  "sourcePath": "D:\\BetFlipDApp_D\\smart_contract\\contracts\\Ownable.sol",
  "compiler": {
    "name": "solc",
    "version": "0.6.6+commit.6c089d02.Emscripten.clang"
  },
  "schemaVersion": "3.0.23",
  "updatedAt": "2020-05-16T11:07:07.747Z",
  "networkType": "ethereum",
  "devdoc": {
    "methods": {}
  },
  "userdoc": {
    "methods": {}
  }
}